:1C800000414210809A81CB8100000000000000002102C02200C0CD1682C350802D
:20819A00D92127821801E1AF5E2356BB2006BA2003D937C923E52189FDCD0A8220E8E11307
:2081BA00D5D9D1E521C881E5EB5E2356D5C9E1B7C9D908213B821801E1AF5E2356BB200710
:2081DA00BA2004D90837C923E52189FDCD0A8220E708FEFF20021313E1D5D9D113E567E5C6
:2081FA0033210582E5EB5E2356D5C9337DE1B7C97E471AB8C0FE00C8231318F4010000785C
:20821A00B1CA26821102C0212782EDB0C92D8234820000434D443100D480434D4432000852
:0D823A00813F820000444556006C813C816C
:20801C0021020039462366687EB7C8E5DDE5FD2AC0FCDD21A200CD1C00DDE1E12318E9C915
:20803C00114880EBD5CD1C80E1C31C805B44454255475D00215680C33C8048656C6C6F2039
:20805C004D53582066726F6D2043210D0A496620796F7520646F6E27742077616E74207902
:20807C006F75720D0A524F4D2070726F6772616D20746F2072657475726E20746F0D0A4252
:20809C00415349432F4D53582D444F532C206A7573742061766F69640D0A6D61696E2773CF
:2080BC002072657475726E20696E737472756374696F6E2E0D0A0000E521E580CD3C80D1F8
:2080DC001AB7C8D63AC81318F754686520432068616E646C657220666F7220434D443120C3
:2080FC0073617973206869210D0A0000E5211981CD3C80D11AB7C8D63AC81318F7546865CD
:20811C0020432068616E646C657220666F7220434D44322073617973206869210D0A00004C
:20813C00214481CD3C80AFC954686520432068616E646C657220666F72204445565F676529
:20815C007449642073617973206869210D0A0000217581CD3C80E133E95468652043206830
:1E817C00616E646C657220666F72204445565F494F2073617973206869210D0A000009
:00000001FF
